{
  "_format": "hh-sol-artifact-1",
  "contractName": "MyToken",
  "sourceName": "contracts/testContract.sol",
  "abi": [
    {
      "inputs": [],
      "stateMutability": "nonpayable",
      "type": "constructor"
    },
    {
      "anonymous": false,
      "inputs": [
        {
          "indexed": true,
          "internalType": "address",
          "name": "account",
          "type": "address"
        },
        {
          "indexed": true,
          "internalType": "address",
          "name": "operator",
          "type": "address"
        },
        {
          "indexed": false,
          "internalType": "bool",
          "name": "approved",
          "type": "bool"
        }
      ],
      "name": "ApprovalForAll",
      "type": "event"
    },
    {
      "anonymous": false,
      "inputs": [
        {
          "indexed": true,
          "internalType": "address",
          "name": "previousOwner",
          "type": "address"
        },
        {
          "indexed": true,
          "internalType": "address",
          "name": "newOwner",
          "type": "address"
        }
      ],
      "name": "OwnershipTransferred",
      "type": "event"
    },
    {
      "anonymous": false,
      "inputs": [
        {
          "indexed": false,
          "internalType": "address",
          "name": "account",
          "type": "address"
        }
      ],
      "name": "Paused",
      "type": "event"
    },
    {
      "anonymous": false,
      "inputs": [
        {
          "indexed": true,
          "internalType": "address",
          "name": "operator",
          "type": "address"
        },
        {
          "indexed": true,
          "internalType": "address",
          "name": "from",
          "type": "address"
        },
        {
          "indexed": true,
          "internalType": "address",
          "name": "to",
          "type": "address"
        },
        {
          "indexed": false,
          "internalType": "uint256[]",
          "name": "ids",
          "type": "uint256[]"
        },
        {
          "indexed": false,
          "internalType": "uint256[]",
          "name": "values",
          "type": "uint256[]"
        }
      ],
      "name": "TransferBatch",
      "type": "event"
    },
    {
      "anonymous": false,
      "inputs": [
        {
          "indexed": true,
          "internalType": "address",
          "name": "operator",
          "type": "address"
        },
        {
          "indexed": true,
          "internalType": "address",
          "name": "from",
          "type": "address"
        },
        {
          "indexed": true,
          "internalType": "address",
          "name": "to",
          "type": "address"
        },
        {
          "indexed": false,
          "internalType": "uint256",
          "name": "id",
          "type": "uint256"
        },
        {
          "indexed": false,
          "internalType": "uint256",
          "name": "value",
          "type": "uint256"
        }
      ],
      "name": "TransferSingle",
      "type": "event"
    },
    {
      "anonymous": false,
      "inputs": [
        {
          "indexed": false,
          "internalType": "string",
          "name": "value",
          "type": "string"
        },
        {
          "indexed": true,
          "internalType": "uint256",
          "name": "id",
          "type": "uint256"
        }
      ],
      "name": "URI",
      "type": "event"
    },
    {
      "anonymous": false,
      "inputs": [
        {
          "indexed": false,
          "internalType": "address",
          "name": "account",
          "type": "address"
        }
      ],
      "name": "Unpaused",
      "type": "event"
    },
    {
      "inputs": [],
      "name": "N",
      "outputs": [
        {
          "internalType": "uint256",
          "name": "",
          "type": "uint256"
        }
      ],
      "stateMutability": "view",
      "type": "function"
    },
    {
      "inputs": [
        {
          "internalType": "address",
          "name": "account",
          "type": "address"
        },
        {
          "internalType": "uint256",
          "name": "id",
          "type": "uint256"
        }
      ],
      "name": "balanceOf",
      "outputs": [
        {
          "internalType": "uint256",
          "name": "",
          "type": "uint256"
        }
      ],
      "stateMutability": "view",
      "type": "function"
    },
    {
      "inputs": [
        {
          "internalType": "address[]",
          "name": "accounts",
          "type": "address[]"
        },
        {
          "internalType": "uint256[]",
          "name": "ids",
          "type": "uint256[]"
        }
      ],
      "name": "balanceOfBatch",
      "outputs": [
        {
          "internalType": "uint256[]",
          "name": "",
          "type": "uint256[]"
        }
      ],
      "stateMutability": "view",
      "type": "function"
    },
    {
      "inputs": [
        {
          "internalType": "address",
          "name": "account",
          "type": "address"
        },
        {
          "internalType": "uint256",
          "name": "id",
          "type": "uint256"
        },
        {
          "internalType": "uint256",
          "name": "value",
          "type": "uint256"
        }
      ],
      "name": "burn",
      "outputs": [],
      "stateMutability": "nonpayable",
      "type": "function"
    },
    {
      "inputs": [
        {
          "internalType": "address",
          "name": "account",
          "type": "address"
        },
        {
          "internalType": "uint256[]",
          "name": "ids",
          "type": "uint256[]"
        },
        {
          "internalType": "uint256[]",
          "name": "values",
          "type": "uint256[]"
        }
      ],
      "name": "burnBatch",
      "outputs": [],
      "stateMutability": "nonpayable",
      "type": "function"
    },
    {
      "inputs": [
        {
          "internalType": "uint256",
          "name": "_time_mintable",
          "type": "uint256"
        }
      ],
      "name": "changeCutoff",
      "outputs": [],
      "stateMutability": "nonpayable",
      "type": "function"
    },
    {
      "inputs": [
        {
          "internalType": "uint256",
          "name": "_N",
          "type": "uint256"
        }
      ],
      "name": "changeN",
      "outputs": [],
      "stateMutability": "nonpayable",
      "type": "function"
    },
    {
      "inputs": [],
      "name": "creationTime",
      "outputs": [
        {
          "internalType": "uint256",
          "name": "",
          "type": "uint256"
        }
      ],
      "stateMutability": "view",
      "type": "function"
    },
    {
      "inputs": [],
      "name": "cutoffTime",
      "outputs": [
        {
          "internalType": "uint256",
          "name": "",
          "type": "uint256"
        }
      ],
      "stateMutability": "view",
      "type": "function"
    },
    {
      "inputs": [],
      "name": "exactAmount",
      "outputs": [
        {
          "internalType": "uint256",
          "name": "",
          "type": "uint256"
        }
      ],
      "stateMutability": "view",
      "type": "function"
    },
    {
      "inputs": [
        {
          "internalType": "uint256",
          "name": "id",
          "type": "uint256"
        }
      ],
      "name": "exists",
      "outputs": [
        {
          "internalType": "bool",
          "name": "",
          "type": "bool"
        }
      ],
      "stateMutability": "view",
      "type": "function"
    },
    {
      "inputs": [
        {
          "internalType": "address",
          "name": "account",
          "type": "address"
        },
        {
          "internalType": "address",
          "name": "operator",
          "type": "address"
        }
      ],
      "name": "isApprovedForAll",
      "outputs": [
        {
          "internalType": "bool",
          "name": "",
          "type": "bool"
        }
      ],
      "stateMutability": "view",
      "type": "function"
    },
    {
      "inputs": [
        {
          "internalType": "address",
          "name": "account",
          "type": "address"
        },
        {
          "internalType": "uint256",
          "name": "id",
          "type": "uint256"
        },
        {
          "internalType": "uint256",
          "name": "amount",
          "type": "uint256"
        },
        {
          "internalType": "bytes",
          "name": "data",
          "type": "bytes"
        }
      ],
      "name": "mint",
      "outputs": [],
      "stateMutability": "payable",
      "type": "function"
    },
    {
      "inputs": [
        {
          "internalType": "address",
          "name": "to",
          "type": "address"
        },
        {
          "internalType": "uint256[]",
          "name": "ids",
          "type": "uint256[]"
        },
        {
          "internalType": "uint256[]",
          "name": "amounts",
          "type": "uint256[]"
        },
        {
          "internalType": "bytes",
          "name": "data",
          "type": "bytes"
        }
      ],
      "name": "mintBatch",
      "outputs": [],
      "stateMutability": "nonpayable",
      "type": "function"
    },
    {
      "inputs": [],
      "name": "owner",
      "outputs": [
        {
          "internalType": "address",
          "name": "",
          "type": "address"
        }
      ],
      "stateMutability": "view",
      "type": "function"
    },
    {
      "inputs": [],
      "name": "pause",
      "outputs": [],
      "stateMutability": "nonpayable",
      "type": "function"
    },
    {
      "inputs": [],
      "name": "paused",
      "outputs": [
        {
          "internalType": "bool",
          "name": "",
          "type": "bool"
        }
      ],
      "stateMutability": "view",
      "type": "function"
    },
    {
      "inputs": [],
      "name": "renounceOwnership",
      "outputs": [],
      "stateMutability": "nonpayable",
      "type": "function"
    },
    {
      "inputs": [
        {
          "internalType": "address",
          "name": "from",
          "type": "address"
        },
        {
          "internalType": "address",
          "name": "to",
          "type": "address"
        },
        {
          "internalType": "uint256[]",
          "name": "ids",
          "type": "uint256[]"
        },
        {
          "internalType": "uint256[]",
          "name": "amounts",
          "type": "uint256[]"
        },
        {
          "internalType": "bytes",
          "name": "data",
          "type": "bytes"
        }
      ],
      "name": "safeBatchTransferFrom",
      "outputs": [],
      "stateMutability": "nonpayable",
      "type": "function"
    },
    {
      "inputs": [
        {
          "internalType": "address",
          "name": "from",
          "type": "address"
        },
        {
          "internalType": "address",
          "name": "to",
          "type": "address"
        },
        {
          "internalType": "uint256",
          "name": "id",
          "type": "uint256"
        },
        {
          "internalType": "uint256",
          "name": "amount",
          "type": "uint256"
        },
        {
          "internalType": "bytes",
          "name": "data",
          "type": "bytes"
        }
      ],
      "name": "safeTransferFrom",
      "outputs": [],
      "stateMutability": "nonpayable",
      "type": "function"
    },
    {
      "inputs": [
        {
          "internalType": "address",
          "name": "operator",
          "type": "address"
        },
        {
          "internalType": "bool",
          "name": "approved",
          "type": "bool"
        }
      ],
      "name": "setApprovalForAll",
      "outputs": [],
      "stateMutability": "nonpayable",
      "type": "function"
    },
    {
      "inputs": [
        {
          "internalType": "string",
          "name": "newuri",
          "type": "string"
        }
      ],
      "name": "setURI",
      "outputs": [],
      "stateMutability": "nonpayable",
      "type": "function"
    },
    {
      "inputs": [
        {
          "internalType": "bytes4",
          "name": "interfaceId",
          "type": "bytes4"
        }
      ],
      "name": "supportsInterface",
      "outputs": [
        {
          "internalType": "bool",
          "name": "",
          "type": "bool"
        }
      ],
      "stateMutability": "view",
      "type": "function"
    },
    {
      "inputs": [],
      "name": "test_mint",
      "outputs": [],
      "stateMutability": "payable",
      "type": "function"
    },
    {
      "inputs": [
        {
          "internalType": "uint256",
          "name": "id",
          "type": "uint256"
        }
      ],
      "name": "totalSupply",
      "outputs": [
        {
          "internalType": "uint256",
          "name": "",
          "type": "uint256"
        }
      ],
      "stateMutability": "view",
      "type": "function"
    },
    {
      "inputs": [
        {
          "internalType": "address",
          "name": "newOwner",
          "type": "address"
        }
      ],
      "name": "transferOwnership",
      "outputs": [],
      "stateMutability": "nonpayable",
      "type": "function"
    },
    {
      "inputs": [],
      "name": "unpause",
      "outputs": [],
      "stateMutability": "nonpayable",
      "type": "function"
    },
    {
      "inputs": [
        {
          "internalType": "uint256",
          "name": "",
          "type": "uint256"
        }
      ],
      "name": "uri",
      "outputs": [
        {
          "internalType": "string",
          "name": "",
          "type": "string"
        }
      ],
      "stateMutability": "view",
      "type": "function"
    },
    {
      "inputs": [],
      "name": "withdraw",
      "outputs": [],
      "stateMutability": "nonpayable",
      "type": "function"
    }
  ],
  "bytecode": "0x6080604052426005556138406005546200001a91906200025b565b60065560016007556301312d006008553480156200003757600080fd5b506040518060400160405280601d81526020017f68747470733a2f2f6a736f6e6b65657065722e636f6d2f622f525555530000008152506200007f81620000c160201b60201c565b50620000a062000094620000dd60201b60201c565b620000e560201b60201c565b6000600360146101000a81548160ff02191690831515021790555062000356565b8060029080519060200190620000d9929190620001ab565b5050565b600033905090565b6000600360009054906101000a900473ffffffffffffffffffffffffffffffffffffffff16905081600360006101000a81548173ffffffffffffffffffffffffffffffffffffffff021916908373ffffffffffffffffffffffffffffffffffffffff1602179055508173ffffffffffffffffffffffffffffffffffffffff168173ffffffffffffffffffffffffffffffffffffffff167f8be0079c531659141344cd1fd0a4f28419497f9722a3daafe3b4186f6b6457e060405160405180910390a35050565b828054620001b990620002c2565b90600052602060002090601f016020900481019282620001dd576000855562000229565b82601f10620001f857805160ff191683800117855562000229565b8280016001018555821562000229579182015b82811115620002285782518255916020019190600101906200020b565b5b5090506200023891906200023c565b5090565b5b80821115620002575760008160009055506001016200023d565b5090565b60006200026882620002b8565b91506200027583620002b8565b9250827fffffffffffffffffffffffffffffffffffffffffffffffffffffffffffffffff03821115620002ad57620002ac620002f8565b5b828201905092915050565b6000819050919050565b60006002820490506001821680620002db57607f821691505b60208210811415620002f257620002f162000327565b5b50919050565b7f4e487b7100000000000000000000000000000000000000000000000000000000600052601160045260246000fd5b7f4e487b7100000000000000000000000000000000000000000000000000000000600052602260045260246000fd5b614c4480620003666000396000f3fe6080604052600436106101c15760003560e01c80636aac216d116100f7578063a22cb46511610095578063e985e9c511610064578063e985e9c5146105d7578063f242432a14610614578063f2fde38b1461063d578063f5298aca14610666576101c1565b8063a22cb4651461051b578063bd85b03914610544578063c9e525df14610581578063d8270dce146105ac576101c1565b8063731133e9116100d1578063731133e9146104945780638456cb59146104b05780638da5cb5b146104c75780639f9760b1146104f2576101c1565b80636aac216d1461042b5780636b20c45414610454578063715018a61461047d576101c1565b80632eb2c2d6116101645780634e1273f41161013e5780634e1273f41461035b5780634f558e79146103985780635c975abb146103d557806362107e8d14610400576101c1565b80632eb2c2d6146103045780633ccfd60b1461032d5780633f4ba83a14610344576101c1565b80630e89341c116101a05780630e89341c146102695780631e2fc4f7146102a65780631f7fdffa146102b0578063261a9ac9146102d9576101c1565b8062fdd58e146101c657806301ffc9a71461020357806302fe530514610240575b600080fd5b3480156101d257600080fd5b506101ed60048036038101906101e89190613688565b61068f565b6040516101fa9190614104565b60405180910390f35b34801561020f57600080fd5b5061022a600480360381019061022591906137fa565b610758565b6040516102379190613e27565b60405180910390f35b34801561024c57600080fd5b506102676004803603810190610262919061384c565b61083a565b005b34801561027557600080fd5b50610290600480360381019061028b919061388d565b6108c2565b60405161029d9190613e42565b60405180910390f35b6102ae610956565b005b3480156102bc57600080fd5b506102d760048036038101906102d291906135a1565b61099b565b005b3480156102e557600080fd5b506102ee610a6d565b6040516102fb9190614104565b60405180910390f35b34801561031057600080fd5b5061032b600480360381019061032691906133d4565b610a73565b005b34801561033957600080fd5b50610342610b14565b005b34801561035057600080fd5b50610359610c45565b005b34801561036757600080fd5b50610382600480360381019061037d919061378e565b610ccb565b60405161038f9190613dce565b60405180910390f35b3480156103a457600080fd5b506103bf60048036038101906103ba919061388d565b610e7c565b6040516103cc9190613e27565b60405180910390f35b3480156103e157600080fd5b506103ea610e90565b6040516103f79190613e27565b60405180910390f35b34801561040c57600080fd5b50610415610ea7565b6040516104229190614104565b60405180910390f35b34801561043757600080fd5b50610452600480360381019061044d919061388d565b610ead565b005b34801561046057600080fd5b5061047b60048036038101906104769190613522565b610f33565b005b34801561048957600080fd5b50610492610fd0565b005b6104ae60048036038101906104a99190613713565b611058565b005b3480156104bc57600080fd5b506104c56111a8565b005b3480156104d357600080fd5b506104dc61122e565b6040516104e99190613cf1565b60405180910390f35b3480156104fe57600080fd5b506105196004803603810190610514919061388d565b611258565b005b34801561052757600080fd5b50610542600480360381019061053d919061364c565b61132f565b005b34801561055057600080fd5b5061056b6004803603810190610566919061388d565b611345565b6040516105789190614104565b60405180910390f35b34801561058d57600080fd5b50610596611362565b6040516105a39190614104565b60405180910390f35b3480156105b857600080fd5b506105c1611368565b6040516105ce9190614104565b60405180910390f35b3480156105e357600080fd5b506105fe60048036038101906105f99190613398565b61136e565b60405161060b9190613e27565b60405180910390f35b34801561062057600080fd5b5061063b60048036038101906106369190613493565b611402565b005b34801561064957600080fd5b50610664600480360381019061065f919061336f565b6114a3565b005b34801561067257600080fd5b5061068d600480360381019061068891906136c4565b61159b565b005b60008073ffffffffffffffffffffffffffffffffffffffff168373ffffffffffffffffffffffffffffffffffffffff161415610700576040517f08c379a00000000000000000000000000000000000000000000000000000000081526004016106f790613ee4565b60405180910390fd5b60008083815260200190815260200160002060008473ffffffffffffffffffffffffffffffffffffffff1673ffffffffffffffffffffffffffffffffffffffff16815260200190815260200160002054905092915050565b60007fd9b67a26000000000000000000000000000000000000000000000000000000007bffffffffffffffffffffffffffffffffffffffffffffffffffffffff1916827bffffffffffffffffffffffffffffffffffffffffffffffffffffffff1916148061082357507f0e89341c000000000000000000000000000000000000000000000000000000007bffffffffffffffffffffffffffffffffffffffffffffffffffffffff1916827bffffffffffffffffffffffffffffffffffffffffffffffffffffffff1916145b80610833575061083282611638565b5b9050919050565b6108426116a2565b73ffffffffffffffffffffffffffffffffffffffff1661086061122e565b73ffffffffffffffffffffffffffffffffffffffff16146108b6576040517f08c379a00000000000000000000000000000000000000000000000000000000081526004016108ad90614064565b60405180910390fd5b6108bf816116aa565b50565b6060600280546108d1906143e3565b80601f01602080910402602001604051908101604052809291908181526020018280546108fd906143e3565b801561094a5780601f1061091f5761010080835404028352916020019161094a565b820191906000526020600020905b81548152906001019060200180831161092d57829003601f168201915b50505050509050919050565b61099933600060016040518060400160405280600481526020017f3078303000000000000000000000000000000000000000000000000000000000815250611058565b565b6109a36116a2565b73ffffffffffffffffffffffffffffffffffffffff166109c161122e565b73ffffffffffffffffffffffffffffffffffffffff1614610a17576040517f08c379a0000000000000000000000000000000000000000000000000000000008152600401610a0e90614064565b60405180910390fd5b6006544210610a5b576040517f08c379a0000000000000000000000000000000000000000000000000000000008152600401610a5290614004565b60405180910390fd5b610a67848484846116c4565b50505050565b60085481565b610a7b6116a2565b73ffffffffffffffffffffffffffffffffffffffff168573ffffffffffffffffffffffffffffffffffffffff161480610ac15750610ac085610abb6116a2565b61136e565b5b610b00576040517f08c379a0000000000000000000000000000000000000000000000000000000008152600401610af790613fe4565b60405180910390fd5b610b0d858585858561192e565b5050505050565b610b1c6116a2565b73ffffffffffffffffffffffffffffffffffffffff16610b3a61122e565b73ffffffffffffffffffffffffffffffffffffffff1614610b90576040517f08c379a0000000000000000000000000000000000000000000000000000000008152600401610b8790614064565b60405180910390fd5b600047905060003373ffffffffffffffffffffffffffffffffffffffff1682604051610bbb90613cdc565b60006040518083038185875af1925050503d8060008114610bf8576040519150601f19603f3d011682016040523d82523d6000602084013e610bfd565b606091505b5050905080610c41576040517f08c379a0000000000000000000000000000000000000000000000000000000008152600401610c3890613f84565b60405180910390fd5b5050565b610c4d6116a2565b73ffffffffffffffffffffffffffffffffffffffff16610c6b61122e565b73ffffffffffffffffffffffffffffffffffffffff1614610cc1576040517f08c379a0000000000000000000000000000000000000000000000000000000008152600401610cb890614064565b60405180910390fd5b610cc9611c8e565b565b60608151835114610d11576040517f08c379a0000000000000000000000000000000000000000000000000000000008152600401610d08906140a4565b60405180910390fd5b6000835167ffffffffffffffff811115610d54577f4e487b7100000000000000000000000000000000000000000000000000000000600052604160045260246000fd5b604051908082528060200260200182016040528015610d825781602001602082028036833780820191505090505b50905060005b8451811015610e7157610e1b858281518110610dcd577f4e487b7100000000000000000000000000000000000000000000000000000000600052603260045260246000fd5b6020026020010151858381518110610e0e577f4e487b7100000000000000000000000000000000000000000000000000000000600052603260045260246000fd5b602002602001015161068f565b828281518110610e54577f4e487b7100000000000000000000000000000000000000000000000000000000600052603260045260246000fd5b60200260200101818152505080610e6a90614446565b9050610d88565b508091505092915050565b600080610e8883611345565b119050919050565b6000600360149054906101000a900460ff16905090565b60065481565b610eb56116a2565b73ffffffffffffffffffffffffffffffffffffffff16610ed361122e565b73ffffffffffffffffffffffffffffffffffffffff1614610f29576040517f08c379a0000000000000000000000000000000000000000000000000000000008152600401610f2090614064565b60405180910390fd5b8060078190555050565b610f3b6116a2565b73ffffffffffffffffffffffffffffffffffffffff168373ffffffffffffffffffffffffffffffffffffffff161480610f815750610f8083610f7b6116a2565b61136e565b5b610fc0576040517f08c379a0000000000000000000000000000000000000000000000000000000008152600401610fb790613f44565b60405180910390fd5b610fcb838383611d30565b505050565b610fd86116a2565b73ffffffffffffffffffffffffffffffffffffffff16610ff661122e565b73ffffffffffffffffffffffffffffffffffffffff161461104c576040517f08c379a000000000000000000000000000000000000000000000000000000000815260040161104390614064565b60405180910390fd5b611056600061202d565b565b600654421061109c576040517f08c379a000000000000000000000000000000000000000000000000000000000815260040161109390614004565b60405180910390fd5b6008543410156110e1576040517f08c379a00000000000000000000000000000000000000000000000000000000081526004016110d890613ea4565b60405180910390fd5b600182146110ee57600080fd5b6000600854346110fe91906142f9565b905060075461110e86600061068f565b1061114e576040517f08c379a000000000000000000000000000000000000000000000000000000000815260040161114590613f64565b60405180910390fd5b3373ffffffffffffffffffffffffffffffffffffffff166108fc829081150290604051600060405180830381858888f19350505050158015611194573d6000803e3d6000fd5b506111a1858585856120f3565b5050505050565b6111b06116a2565b73ffffffffffffffffffffffffffffffffffffffff166111ce61122e565b73ffffffffffffffffffffffffffffffffffffffff1614611224576040517f08c379a000000000000000000000000000000000000000000000000000000000815260040161121b90614064565b60405180910390fd5b61122c612289565b565b6000600360009054906101000a900473ffffffffffffffffffffffffffffffffffffffff16905090565b6112606116a2565b73ffffffffffffffffffffffffffffffffffffffff1661127e61122e565b73ffffffffffffffffffffffffffffffffffffffff16146112d4576040517f08c379a00000000000000000000000000000000000000000000000000000000081526004016112cb90614064565b60405180910390fd5b6006544210611318576040517f08c379a000000000000000000000000000000000000000000000000000000000815260040161130f90614004565b60405180910390fd5b8060055461132691906142a3565b60068190555050565b61134161133a6116a2565b838361232c565b5050565b600060046000838152602001908152602001600020549050919050565b60075481565b60055481565b6000600160008473ffffffffffffffffffffffffffffffffffffffff1673ffffffffffffffffffffffffffffffffffffffff16815260200190815260200160002060008373ffffffffffffffffffffffffffffffffffffffff1673ffffffffffffffffffffffffffffffffffffffff16815260200190815260200160002060009054906101000a900460ff16905092915050565b61140a6116a2565b73ffffffffffffffffffffffffffffffffffffffff168573ffffffffffffffffffffffffffffffffffffffff161480611450575061144f8561144a6116a2565b61136e565b5b61148f576040517f08c379a000000000000000000000000000000000000000000000000000000000815260040161148690613f44565b60405180910390fd5b61149c8585858585612499565b5050505050565b6114ab6116a2565b73ffffffffffffffffffffffffffffffffffffffff166114c961122e565b73ffffffffffffffffffffffffffffffffffffffff161461151f576040517f08c379a000000000000000000000000000000000000000000000000000000000815260040161151690614064565b60405180910390fd5b600073ffffffffffffffffffffffffffffffffffffffff168173ffffffffffffffffffffffffffffffffffffffff16141561158f576040517f08c379a000000000000000000000000000000000000000000000000000000000815260040161158690613f04565b60405180910390fd5b6115988161202d565b50565b6115a36116a2565b73ffffffffffffffffffffffffffffffffffffffff168373ffffffffffffffffffffffffffffffffffffffff1614806115e957506115e8836115e36116a2565b61136e565b5b611628576040517f08c379a000000000000000000000000000000000000000000000000000000000815260040161161f90613f44565b60405180910390fd5b61163383838361271b565b505050565b60007f01ffc9a7000000000000000000000000000000000000000000000000000000007bffffffffffffffffffffffffffffffffffffffffffffffffffffffff1916827bffffffffffffffffffffffffffffffffffffffffffffffffffffffff1916149050919050565b600033905090565b80600290805190602001906116c0929190613067565b5050565b600073ffffffffffffffffffffffffffffffffffffffff168473ffffffffffffffffffffffffffffffffffffffff161415611734576040517f08c379a000000000000000000000000000000000000000000000000000000000815260040161172b906140e4565b60405180910390fd5b8151835114611778576040517f08c379a000000000000000000000000000000000000000000000000000000000815260040161176f906140c4565b60405180910390fd5b60006117826116a2565b905061179381600087878787612938565b60005b8451811015611898578381815181106117d8577f4e487b7100000000000000000000000000000000000000000000000000000000600052603260045260246000fd5b602002602001015160008087848151811061181c577f4e487b7100000000000000000000000000000000000000000000000000000000600052603260045260246000fd5b6020026020010151815260200190815260200160002060008873ffffffffffffffffffffffffffffffffffffffff1673ffffffffffffffffffffffffffffffffffffffff168152602001908152602001600020600082825461187e91906142a3565b92505081905550808061189090614446565b915050611796565b508473ffffffffffffffffffffffffffffffffffffffff16600073ffffffffffffffffffffffffffffffffffffffff168273ffffffffffffffffffffffffffffffffffffffff167f4a39dc06d4c0dbc64b70af90fd698a233a518aa5d07e595d983b8c0526c8f7fb8787604051611910929190613df0565b60405180910390a461192781600087878787612996565b5050505050565b8151835114611972576040517f08c379a0000000000000000000000000000000000000000000000000000000008152600401611969906140c4565b60405180910390fd5b600073ffffffffffffffffffffffffffffffffffffffff168473ffffffffffffffffffffffffffffffffffffffff1614156119e2576040517f08c379a00000000000000000000000000000000000000000000000000000000081526004016119d990613fc4565b60405180910390fd5b60006119ec6116a2565b90506119fc818787878787612938565b60005b8451811015611bf9576000858281518110611a43577f4e487b7100000000000000000000000000000000000000000000000000000000600052603260045260246000fd5b602002602001015190506000858381518110611a88577f4e487b7100000000000000000000000000000000000000000000000000000000600052603260045260246000fd5b60200260200101519050600080600084815260200190815260200160002060008b73ffffffffffffffffffffffffffffffffffffffff1673ffffffffffffffffffffffffffffffffffffffff16815260200190815260200160002054905081811015611b29576040517f08c379a0000000000000000000000000000000000000000000000000000000008152600401611b2090614044565b60405180910390fd5b81810360008085815260200190815260200160002060008c73ffffffffffffffffffffffffffffffffffffffff1673ffffffffffffffffffffffffffffffffffffffff168152602001908152602001600020819055508160008085815260200190815260200160002060008b73ffffffffffffffffffffffffffffffffffffffff1673ffffffffffffffffffffffffffffffffffffffff1681526020019081526020016000206000828254611bde91906142a3565b9250508190555050505080611bf290614446565b90506119ff565b508473ffffffffffffffffffffffffffffffffffffffff168673ffffffffffffffffffffffffffffffffffffffff168273ffffffffffffffffffffffffffffffffffffffff167f4a39dc06d4c0dbc64b70af90fd698a233a518aa5d07e595d983b8c0526c8f7fb8787604051611c70929190613df0565b60405180910390a4611c86818787878787612996565b505050505050565b611c96610e90565b611cd5576040517f08c379a0000000000000000000000000000000000000000000000000000000008152600401611ccc90613ec4565b60405180910390fd5b6000600360146101000a81548160ff0219169083151502179055507f5db9ee0a495bf2e6ff9c91a7834c1ba4fdd244a5e8aa4e537bd38aeae4b073aa611d196116a2565b604051611d269190613cf1565b60405180910390a1565b600073ffffffffffffffffffffffffffffffffffffffff168373ffffffffffffffffffffffffffffffffffffffff161415611da0576040517f08c379a0000000000000000000000000000000000000000000000000000000008152600401611d9790614024565b60405180910390fd5b8051825114611de4576040517f08c379a0000000000000000000000000000000000000000000000000000000008152600401611ddb906140c4565b60405180910390fd5b6000611dee6116a2565b9050611e0e81856000868660405180602001604052806000815250612938565b60005b8351811015611fa7576000848281518110611e55577f4e487b7100000000000000000000000000000000000000000000000000000000600052603260045260246000fd5b602002602001015190506000848381518110611e9a577f4e487b7100000000000000000000000000000000000000000000000000000000600052603260045260246000fd5b60200260200101519050600080600084815260200190815260200160002060008973ffffffffffffffffffffffffffffffffffffffff1673ffffffffffffffffffffffffffffffffffffffff16815260200190815260200160002054905081811015611f3b576040517f08c379a0000000000000000000000000000000000000000000000000000000008152600401611f3290613f24565b60405180910390fd5b81810360008085815260200190815260200160002060008a73ffffffffffffffffffffffffffffffffffffffff1673ffffffffffffffffffffffffffffffffffffffff168152602001908152602001600020819055505050508080611f9f90614446565b915050611e11565b50600073ffffffffffffffffffffffffffffffffffffffff168473ffffffffffffffffffffffffffffffffffffffff168273ffffffffffffffffffffffffffffffffffffffff167f4a39dc06d4c0dbc64b70af90fd698a233a518aa5d07e595d983b8c0526c8f7fb868660405161201f929190613df0565b60405180910390a450505050565b6000600360009054906101000a900473ffffffffffffffffffffffffffffffffffffffff16905081600360006101000a81548173ffffffffffffffffffffffffffffffffffffffff021916908373ffffffffffffffffffffffffffffffffffffffff1602179055508173ffffffffffffffffffffffffffffffffffffffff168173ffffffffffffffffffffffffffffffffffffffff167f8be0079c531659141344cd1fd0a4f28419497f9722a3daafe3b4186f6b6457e060405160405180910390a35050565b600073ffffffffffffffffffffffffffffffffffffffff168473ffffffffffffffffffffffffffffffffffffffff161415612163576040517f08c379a000000000000000000000000000000000000000000000000000000000815260040161215a906140e4565b60405180910390fd5b600061216d6116a2565b905061218e8160008761217f88612b7d565b61218888612b7d565b87612938565b8260008086815260200190815260200160002060008773ffffffffffffffffffffffffffffffffffffffff1673ffffffffffffffffffffffffffffffffffffffff16815260200190815260200160002060008282546121ed91906142a3565b925050819055508473ffffffffffffffffffffffffffffffffffffffff16600073ffffffffffffffffffffffffffffffffffffffff168273ffffffffffffffffffffffffffffffffffffffff167fc3d58168c5ae7397731d063d5bbf3d657854427343f4c083240f7aacaa2d0f62878760405161226b92919061411f565b60405180910390a461228281600087878787612c43565b5050505050565b612291610e90565b156122d1576040517f08c379a00000000000000000000000000000000000000000000000000000000081526004016122c890613fa4565b60405180910390fd5b6001600360146101000a81548160ff0219169083151502179055507f62e78cea01bee320cd4e420270b5ea74000d11b0c9f74754ebdbfc544b05a2586123156116a2565b6040516123229190613cf1565b60405180910390a1565b8173ffffffffffffffffffffffffffffffffffffffff168373ffffffffffffffffffffffffffffffffffffffff16141561239b576040517f08c379a000000000000000000000000000000000000000000000000000000000815260040161239290614084565b60405180910390fd5b80600160008573ffffffffffffffffffffffffffffffffffffffff1673ffffffffffffffffffffffffffffffffffffffff16815260200190815260200160002060008473ffffffffffffffffffffffffffffffffffffffff1673ffffffffffffffffffffffffffffffffffffffff16815260200190815260200160002060006101000a81548160ff0219169083151502179055508173ffffffffffffffffffffffffffffffffffffffff168373ffffffffffffffffffffffffffffffffffffffff167f17307eab39ab6107e8899845ad3d59bd9653f200f220920489ca2b5937696c318360405161248c9190613e27565b60405180910390a3505050565b600073ffffffffffffffffffffffffffffffffffffffff168473ffffffffffffffffffffffffffffffffffffffff161415612509576040517f08c379a000000000000000000000000000000000000000000000000000000000815260040161250090613fc4565b60405180910390fd5b60006125136116a2565b905061253381878761252488612b7d565b61252d88612b7d565b87612938565b600080600086815260200190815260200160002060008873ffffffffffffffffffffffffffffffffffffffff1673ffffffffffffffffffffffffffffffffffffffff168152602001908152602001600020549050838110156125ca576040517f08c379a00000000000000000000000000000000000000000000000000000000081526004016125c190614044565b60405180910390fd5b83810360008087815260200190815260200160002060008973ffffffffffffffffffffffffffffffffffffffff1673ffffffffffffffffffffffffffffffffffffffff168152602001908152602001600020819055508360008087815260200190815260200160002060008873ffffffffffffffffffffffffffffffffffffffff1673ffffffffffffffffffffffffffffffffffffffff168152602001908152602001600020600082825461267f91906142a3565b925050819055508573ffffffffffffffffffffffffffffffffffffffff168773ffffffffffffffffffffffffffffffffffffffff168373ffffffffffffffffffffffffffffffffffffffff167fc3d58168c5ae7397731d063d5bbf3d657854427343f4c083240f7aacaa2d0f6288886040516126fc92919061411f565b60405180910390a4612712828888888888612c43565b50505050505050565b600073ffffffffffffffffffffffffffffffffffffffff168373ffffffffffffffffffffffffffffffffffffffff16141561278b576040517f08c379a000000000000000000000000000000000000000000000000000000000815260040161278290614024565b60405180910390fd5b60006127956116a2565b90506127c5818560006127a787612b7d565b6127b087612b7d565b60405180602001604052806000815250612938565b600080600085815260200190815260200160002060008673ffffffffffffffffffffffffffffffffffffffff1673ffffffffffffffffffffffffffffffffffffffff1681526020019081526020016000205490508281101561285c576040517f08c379a000000000000000000000000000000000000000000000000000000000815260040161285390613f24565b60405180910390fd5b82810360008086815260200190815260200160002060008773ffffffffffffffffffffffffffffffffffffffff1673ffffffffffffffffffffffffffffffffffffffff16815260200190815260200160002081905550600073ffffffffffffffffffffffffffffffffffffffff168573ffffffffffffffffffffffffffffffffffffffff168373ffffffffffffffffffffffffffffffffffffffff167fc3d58168c5ae7397731d063d5bbf3d657854427343f4c083240f7aacaa2d0f62878760405161292992919061411f565b60405180910390a45050505050565b612940610e90565b15612980576040517f08c379a000000000000000000000000000000000000000000000000000000000815260040161297790613fa4565b60405180910390fd5b61298e868686868686612e2a565b505050505050565b6129b58473ffffffffffffffffffffffffffffffffffffffff1661303c565b15612b75578373ffffffffffffffffffffffffffffffffffffffff1663bc197c8187878686866040518663ffffffff1660e01b81526004016129fb959493929190613d0c565b602060405180830381600087803b158015612a1557600080fd5b505af1925050508015612a4657506040513d601f19601f82011682018060405250810190612a439190613823565b60015b612aec57612a5261451c565b806308c379a01415612aaf5750612a67614b1c565b80612a725750612ab1565b806040517f08c379a0000000000000000000000000000000000000000000000000000000008152600401612aa69190613e42565b60405180910390fd5b505b6040517f08c379a0000000000000000000000000000000000000000000000000000000008152600401612ae390613e64565b60405180910390fd5b63bc197c8160e01b7bffffffffffffffffffffffffffffffffffffffffffffffffffffffff1916817bffffffffffffffffffffffffffffffffffffffffffffffffffffffff191614612b73576040517f08c379a0000000000000000000000000000000000000000000000000000000008152600401612b6a90613e84565b60405180910390fd5b505b505050505050565b60606000600167ffffffffffffffff811115612bc2577f4e487b7100000000000000000000000000000000000000000000000000000000600052604160045260246000fd5b604051908082528060200260200182016040528015612bf05781602001602082028036833780820191505090505b5090508281600081518110612c2e577f4e487b7100000000000000000000000000000000000000000000000000000000600052603260045260246000fd5b60200260200101818152505080915050919050565b612c628473ffffffffffffffffffffffffffffffffffffffff1661303c565b15612e22578373ffffffffffffffffffffffffffffffffffffffff1663f23a6e6187878686866040518663ffffffff1660e01b8152600401612ca8959493929190613d74565b602060405180830381600087803b158015612cc257600080fd5b505af1925050508015612cf357506040513d601f19601f82011682018060405250810190612cf09190613823565b60015b612d9957612cff61451c565b806308c379a01415612d5c5750612d14614b1c565b80612d1f5750612d5e565b806040517f08c379a0000000000000000000000000000000000000000000000000000000008152600401612d539190613e42565b60405180910390fd5b505b6040517f08c379a0000000000000000000000000000000000000000000000000000000008152600401612d9090613e64565b60405180910390fd5b63f23a6e6160e01b7bffffffffffffffffffffffffffffffffffffffffffffffffffffffff1916817bffffffffffffffffffffffffffffffffffffffffffffffffffffffff191614612e20576040517f08c379a0000000000000000000000000000000000000000000000000000000008152600401612e1790613e84565b60405180910390fd5b505b505050505050565b612e3886868686868661305f565b600073ffffffffffffffffffffffffffffffffffffffff168573ffffffffffffffffffffffffffffffffffffffff161415612f365760005b8351811015612f3457828181518110612eb2577f4e487b7100000000000000000000000000000000000000000000000000000000600052603260045260246000fd5b602002602001015160046000868481518110612ef7577f4e487b7100000000000000000000000000000000000000000000000000000000600052603260045260246000fd5b602002602001015181526020019081526020016000206000828254612f1c91906142a3565b9250508190555080612f2d90614446565b9050612e70565b505b600073ffffffffffffffffffffffffffffffffffffffff168473ffffffffffffffffffffffffffffffffffffffff1614156130345760005b835181101561303257828181518110612fb0577f4e487b7100000000000000000000000000000000000000000000000000000000600052603260045260246000fd5b602002602001015160046000868481518110612ff5577f4e487b7100000000000000000000000000000000000000000000000000000000600052603260045260246000fd5b60200260200101518152602001908152602001600020600082825461301a91906142f9565b925050819055508061302b90614446565b9050612f6e565b505b505050505050565b6000808273ffffffffffffffffffffffffffffffffffffffff163b119050919050565b505050505050565b828054613073906143e3565b90600052602060002090601f01602090048101928261309557600085556130dc565b82601f106130ae57805160ff19168380011785556130dc565b828001600101855582156130dc579182015b828111156130db5782518255916020019190600101906130c0565b5b5090506130e991906130ed565b5090565b5b808211156131065760008160009055506001016130ee565b5090565b600061311d6131188461416d565b614148565b9050808382526020820190508285602086028201111561313c57600080fd5b60005b8581101561316c5781613152888261325e565b84526020840193506020830192505060018101905061313f565b5050509392505050565b600061318961318484614199565b614148565b905080838252602082019050828560208602820111156131a857600080fd5b60005b858110156131d857816131be888261335a565b8452602084019350602083019250506001810190506131ab565b5050509392505050565b60006131f56131f0846141c5565b614148565b90508281526020810184848401111561320d57600080fd5b6132188482856143a1565b509392505050565b600061323361322e846141f6565b614148565b90508281526020810184848401111561324b57600080fd5b6132568482856143a1565b509392505050565b60008135905061326d81614bb2565b92915050565b600082601f83011261328457600080fd5b813561329484826020860161310a565b91505092915050565b600082601f8301126132ae57600080fd5b81356132be848260208601613176565b91505092915050565b6000813590506132d681614bc9565b92915050565b6000813590506132eb81614be0565b92915050565b60008151905061330081614be0565b92915050565b600082601f83011261331757600080fd5b81356133278482602086016131e2565b91505092915050565b600082601f83011261334157600080fd5b8135613351848260208601613220565b91505092915050565b60008135905061336981614bf7565b92915050565b60006020828403121561338157600080fd5b600061338f8482850161325e565b91505092915050565b600080604083850312156133ab57600080fd5b60006133b98582860161325e565b92505060206133ca8582860161325e565b9150509250929050565b600080600080600060a086880312156133ec57600080fd5b60006133fa8882890161325e565b955050602061340b8882890161325e565b945050604086013567ffffffffffffffff81111561342857600080fd5b6134348882890161329d565b935050606086013567ffffffffffffffff81111561345157600080fd5b61345d8882890161329d565b925050608086013567ffffffffffffffff81111561347a57600080fd5b61348688828901613306565b9150509295509295909350565b600080600080600060a086880312156134ab57600080fd5b60006134b98882890161325e565b95505060206134ca8882890161325e565b94505060406134db8882890161335a565b93505060606134ec8882890161335a565b925050608086013567ffffffffffffffff81111561350957600080fd5b61351588828901613306565b9150509295509295909350565b60008060006060848603121561353757600080fd5b60006135458682870161325e565b935050602084013567ffffffffffffffff81111561356257600080fd5b61356e8682870161329d565b925050604084013567ffffffffffffffff81111561358b57600080fd5b6135978682870161329d565b9150509250925092565b600080600080608085870312156135b757600080fd5b60006135c58782880161325e565b945050602085013567ffffffffffffffff8111156135e257600080fd5b6135ee8782880161329d565b935050604085013567ffffffffffffffff81111561360b57600080fd5b6136178782880161329d565b925050606085013567ffffffffffffffff81111561363457600080fd5b61364087828801613306565b91505092959194509250565b6000806040838503121561365f57600080fd5b600061366d8582860161325e565b925050602061367e858286016132c7565b9150509250929050565b6000806040838503121561369b57600080fd5b60006136a98582860161325e565b92505060206136ba8582860161335a565b9150509250929050565b6000806000606084860312156136d957600080fd5b60006136e78682870161325e565b93505060206136f88682870161335a565b92505060406137098682870161335a565b9150509250925092565b6000806000806080858703121561372957600080fd5b60006137378782880161325e565b94505060206137488782880161335a565b93505060406137598782880161335a565b925050606085013567ffffffffffffffff81111561377657600080fd5b61378287828801613306565b91505092959194509250565b600080604083850312156137a157600080fd5b600083013567ffffffffffffffff8111156137bb57600080fd5b6137c785828601613273565b925050602083013567ffffffffffffffff8111156137e457600080fd5b6137f08582860161329d565b9150509250929050565b60006020828403121561380c57600080fd5b600061381a848285016132dc565b91505092915050565b60006020828403121561383557600080fd5b6000613843848285016132f1565b91505092915050565b60006020828403121561385e57600080fd5b600082013567ffffffffffffffff81111561387857600080fd5b61388484828501613330565b91505092915050565b60006020828403121561389f57600080fd5b60006138ad8482850161335a565b91505092915050565b60006138c28383613cbe565b60208301905092915050565b6138d78161432d565b82525050565b60006138e882614237565b6138f28185614265565b93506138fd83614227565b8060005b8381101561392e57815161391588826138b6565b975061392083614258565b925050600181019050613901565b5085935050505092915050565b6139448161433f565b82525050565b600061395582614242565b61395f8185614276565b935061396f8185602086016143b0565b6139788161453e565b840191505092915050565b600061398e8261424d565b6139988185614292565b93506139a88185602086016143b0565b6139b18161453e565b840191505092915050565b60006139c9603483614292565b91506139d48261455c565b604082019050919050565b60006139ec602883614292565b91506139f7826145ab565b604082019050919050565b6000613a0f602283614292565b9150613a1a826145fa565b604082019050919050565b6000613a32601483614292565b9150613a3d82614649565b602082019050919050565b6000613a55602b83614292565b9150613a6082614672565b604082019050919050565b6000613a78602683614292565b9150613a83826146c1565b604082019050919050565b6000613a9b602483614292565b9150613aa682614710565b604082019050919050565b6000613abe602983614292565b9150613ac98261475f565b604082019050919050565b6000613ae1601b83614292565b9150613aec826147ae565b602082019050919050565b6000613b04601483614292565b9150613b0f826147d7565b602082019050919050565b6000613b27601083614292565b9150613b3282614800565b602082019050919050565b6000613b4a602583614292565b9150613b5582614829565b604082019050919050565b6000613b6d603283614292565b9150613b7882614878565b604082019050919050565b6000613b90602183614292565b9150613b9b826148c7565b604082019050919050565b6000613bb3602383614292565b9150613bbe82614916565b604082019050919050565b6000613bd6602a83614292565b9150613be182614965565b604082019050919050565b6000613bf9602083614292565b9150613c04826149b4565b602082019050919050565b6000613c1c600083614287565b9150613c27826149dd565b600082019050919050565b6000613c3f602983614292565b9150613c4a826149e0565b604082019050919050565b6000613c62602983614292565b9150613c6d82614a2f565b604082019050919050565b6000613c85602883614292565b9150613c9082614a7e565b604082019050919050565b6000613ca8602183614292565b9150613cb382614acd565b604082019050919050565b613cc781614397565b82525050565b613cd681614397565b82525050565b6000613ce782613c0f565b9150819050919050565b6000602082019050613d0660008301846138ce565b92915050565b600060a082019050613d2160008301886138ce565b613d2e60208301876138ce565b8181036040830152613d4081866138dd565b90508181036060830152613d5481856138dd565b90508181036080830152613d68818461394a565b90509695505050505050565b600060a082019050613d8960008301886138ce565b613d9660208301876138ce565b613da36040830186613ccd565b613db06060830185613ccd565b8181036080830152613dc2818461394a565b90509695505050505050565b60006020820190508181036000830152613de881846138dd565b905092915050565b60006040820190508181036000830152613e0a81856138dd565b90508181036020830152613e1e81846138dd565b90509392505050565b6000602082019050613e3c600083018461393b565b92915050565b60006020820190508181036000830152613e5c8184613983565b905092915050565b60006020820190508181036000830152613e7d816139bc565b9050919050565b60006020820190508181036000830152613e9d816139df565b9050919050565b60006020820190508181036000830152613ebd81613a02565b9050919050565b60006020820190508181036000830152613edd81613a25565b9050919050565b60006020820190508181036000830152613efd81613a48565b9050919050565b60006020820190508181036000830152613f1d81613a6b565b9050919050565b60006020820190508181036000830152613f3d81613a8e565b9050919050565b60006020820190508181036000830152613f5d81613ab1565b9050919050565b60006020820190508181036000830152613f7d81613ad4565b9050919050565b60006020820190508181036000830152613f9d81613af7565b9050919050565b60006020820190508181036000830152613fbd81613b1a565b9050919050565b60006020820190508181036000830152613fdd81613b3d565b9050919050565b60006020820190508181036000830152613ffd81613b60565b9050919050565b6000602082019050818103600083015261401d81613b83565b9050919050565b6000602082019050818103600083015261403d81613ba6565b9050919050565b6000602082019050818103600083015261405d81613bc9565b9050919050565b6000602082019050818103600083015261407d81613bec565b9050919050565b6000602082019050818103600083015261409d81613c32565b9050919050565b600060208201905081810360008301526140bd81613c55565b9050919050565b600060208201905081810360008301526140dd81613c78565b9050919050565b600060208201905081810360008301526140fd81613c9b565b9050919050565b60006020820190506141196000830184613ccd565b92915050565b60006040820190506141346000830185613ccd565b6141416020830184613ccd565b9392505050565b6000614152614163565b905061415e8282614415565b919050565b6000604051905090565b600067ffffffffffffffff821115614188576141876144ed565b5b602082029050602081019050919050565b600067ffffffffffffffff8211156141b4576141b36144ed565b5b602082029050602081019050919050565b600067ffffffffffffffff8211156141e0576141df6144ed565b5b6141e98261453e565b9050602081019050919050565b600067ffffffffffffffff821115614211576142106144ed565b5b61421a8261453e565b9050602081019050919050565b6000819050602082019050919050565b600081519050919050565b600081519050919050565b600081519050919050565b6000602082019050919050565b600082825260208201905092915050565b600082825260208201905092915050565b600081905092915050565b600082825260208201905092915050565b60006142ae82614397565b91506142b983614397565b9250827fffffffffffffffffffffffffffffffffffffffffffffffffffffffffffffffff038211156142ee576142ed61448f565b5b828201905092915050565b600061430482614397565b915061430f83614397565b9250828210156143225761432161448f565b5b828203905092915050565b600061433882614377565b9050919050565b60008115159050919050565b60007fffffffff0000000000000000000000000000000000000000000000000000000082169050919050565b600073ffffffffffffffffffffffffffffffffffffffff82169050919050565b6000819050919050565b82818337600083830152505050565b60005b838110156143ce5780820151818401526020810190506143b3565b838111156143dd576000848401525b50505050565b600060028204905060018216806143fb57607f821691505b6020821081141561440f5761440e6144be565b5b50919050565b61441e8261453e565b810181811067ffffffffffffffff8211171561443d5761443c6144ed565b5b80604052505050565b600061445182614397565b91507fffffffffffffffffffffffffffffffffffffffffffffffffffffffffffffffff8214156144845761448361448f565b5b600182019050919050565b7f4e487b7100000000000000000000000000000000000000000000000000000000600052601160045260246000fd5b7f4e487b7100000000000000000000000000000000000000000000000000000000600052602260045260246000fd5b7f4e487b7100000000000000000000000000000000000000000000000000000000600052604160045260246000fd5b600060033d111561453b5760046000803e61453860005161454f565b90505b90565b6000601f19601f8301169050919050565b60008160e01c9050919050565b7f455243313135353a207472616e7366657220746f206e6f6e204552433131353560008201527f526563656976657220696d706c656d656e746572000000000000000000000000602082015250565b7f455243313135353a204552433131353552656365697665722072656a6563746560008201527f6420746f6b656e73000000000000000000000000000000000000000000000000602082015250565b7f5573657220646964206e6f74207061792073756666696369656e7420616d6f7560008201527f6e74000000000000000000000000000000000000000000000000000000000000602082015250565b7f5061757361626c653a206e6f7420706175736564000000000000000000000000600082015250565b7f455243313135353a2062616c616e636520717565727920666f7220746865207a60008201527f65726f2061646472657373000000000000000000000000000000000000000000602082015250565b7f4f776e61626c653a206e6577206f776e657220697320746865207a65726f206160008201527f6464726573730000000000000000000000000000000000000000000000000000602082015250565b7f455243313135353a206275726e20616d6f756e7420657863656564732062616c60008201527f616e636500000000000000000000000000000000000000000000000000000000602082015250565b7f455243313135353a2063616c6c6572206973206e6f74206f776e6572206e6f7260008201527f20617070726f7665640000000000000000000000000000000000000000000000602082015250565b7f557365722072656163686564206c696d6974206f66204e465427730000000000600082015250565b7f4661696c656420746f2073656e64204574686572000000000000000000000000600082015250565b7f5061757361626c653a2070617573656400000000000000000000000000000000600082015250565b7f455243313135353a207472616e7366657220746f20746865207a65726f20616460008201527f6472657373000000000000000000000000000000000000000000000000000000602082015250565b7f455243313135353a207472616e736665722063616c6c6572206973206e6f742060008201527f6f776e6572206e6f7220617070726f7665640000000000000000000000000000602082015250565b7f66756e6374696f6e2063616c6c6564206166746572206375746f66662074696d60008201527f6500000000000000000000000000000000000000000000000000000000000000602082015250565b7f455243313135353a206275726e2066726f6d20746865207a65726f206164647260008201527f6573730000000000000000000000000000000000000000000000000000000000602082015250565b7f455243313135353a20696e73756666696369656e742062616c616e636520666f60008201527f72207472616e7366657200000000000000000000000000000000000000000000602082015250565b7f4f776e61626c653a2063616c6c6572206973206e6f7420746865206f776e6572600082015250565b50565b7f455243313135353a2073657474696e6720617070726f76616c2073746174757360008201527f20666f722073656c660000000000000000000000000000000000000000000000602082015250565b7f455243313135353a206163636f756e747320616e6420696473206c656e67746860008201527f206d69736d617463680000000000000000000000000000000000000000000000602082015250565b7f455243313135353a2069647320616e6420616d6f756e7473206c656e6774682060008201527f6d69736d61746368000000000000000000000000000000000000000000000000602082015250565b7f455243313135353a206d696e7420746f20746865207a65726f2061646472657360008201527f7300000000000000000000000000000000000000000000000000000000000000602082015250565b600060443d1015614b2c57614baf565b614b34614163565b60043d036004823e80513d602482011167ffffffffffffffff82111715614b5c575050614baf565b808201805167ffffffffffffffff811115614b7a5750505050614baf565b80602083010160043d038501811115614b97575050505050614baf565b614ba682602001850186614415565b82955050505050505b90565b614bbb8161432d565b8114614bc657600080fd5b50565b614bd28161433f565b8114614bdd57600080fd5b50565b614be98161434b565b8114614bf457600080fd5b50565b614c0081614397565b8114614c0b57600080fd5b5056fea2646970667358221220acd154cedf0280da5cc5479039b3fbe8d2df41ebb498af6e526e585daa0a5c1264736f6c63430008040033",
  "linkReferences": {},
  "deployedLinkReferences": {}
}